:060000000A128A11EB2F29
:1000080064008001840A04060319003404060528E4
:10001800831603133F08F3003E08F2003D08F10081
:100028003C08F0000030F7000030F6000030F50022
:100038000030F4000A168A1126220A128A110318BF
:100048002628272838282130831603179A000030DD
:100058009B00003083160313BF000030BE00003041
:10006800BD000030BC006129831603133F088312CA
:100078000313A300831603133E0883120313A2007D
:10008800831603133D0883120313A1008316031379
:100098003C0883120313A0000030A7000030A6001C
:1000A8000030A5000030A4000A168A1597260A1207
:1000B8008A11031C602861287228223083160317CE
:1000C8009A0000309B00003083160313BF000030F5
:1000D800BE000030BD000030BC006129BF30831273
:1000E8000313EA008030E9000030E8000030E70040
:1000F8004030B6000030B5000030B4000030B30026
:10010800C030B000831603133F0883120313AF00F7
:10011800831603133E0883120313AE0083160313DA
:100128003D0883120313AD00831603133C088312A2
:100138000313AC000A168A1540270A128A11831283
:1001480003132F08BA002E08B9002D08B8002C0890
:10015800B7000A128A11A6240A128A1183120313FD
:100168003608EE003508ED003408EC003308EB00E3
:100178000A128A1162210A128A11831203136A0869
:1001880083160313BF00831203136908831603132E
:10019800BE0083120313680883160313BD0083127D
:1001A8000313670883160313BC00FF30C007031846
:1001B800C10AFF30C1073F08AF003E08AE003D0846
:1001C800AD003C08AC002930B0000830B100003068
:1001D800B2000A168A11E5250A128A11831603133A
:1001E8002F08BF002E08BE002D08BD002C08BC003B
:1001F8003F0883120313EA00831603133E08831291
:100208000313E900831603133D0883120313E80060
:10021800831603133C0883120313E7003F30B6002C
:100228003130B5007230B4001830B30083160313B0
:100238004008F0004108F1000030F11BFF30F200E7
:10024800F30001300A168A11C8220A128A117308AB
:1002580083120313BA007208B9007108B800700855
:10026800B7000A128A11A6240A128A1183120313EC
:100278003608EE003508ED003408EC003308EB00D2
:100288000A128A1162210A128A11831203136A0858
:1002980083160313BF00831203136908831603131D
:1002A800BE0083120313680883160313BD0083126C
:1002B8000313670883160313BC0008008312031393
:1002C8006A08803983160313A800831203136A0887
:1002D80083160313A0002007AA0083120313E91F43
:1002E800762977297A29831603132A148316031388
:1002F8002A0803198029812994292A0A031D852996
:1003080086299029003083120313EA000030E9009F
:100318000030E8000030E7008312E917EA019E295F
:10032800003083120313EA000030E9000030E800CF
:100338000030E7006E08803983160313A9002908E6
:1003480028060319A829A929AA29281783120313FB
:100358006E0883160313A0002007A9008312031355
:10036800ED1FB729B829BB2983160313291483164F
:10037800031329080319C129C229D529290A031DEC
:10038800C629C729D129003083120313EE00003093
:10039800ED000030EC000030EB008312ED17EE01A9
:1003A800DF29003083120313EE000030ED00003027
:1003B800EC000030EB00831603132A082902031807
:1003C800E629E7292F2A281FEA29EB29EF29803077
:1003D800FF007F08A8062A08AB002908AA002B08F6
:1003E800A90083120313670883160313AB00831253
:1003F80003136B08E700831603132B0883120313F8
:10040800EB00680883160313AB00831203136C0810
:10041800E800831603132B0883120313EC00690802
:1004280083160313AB00831203136D08E9008316C8
:1004380003132B0883120313ED006A0883160313B2
:10044800AB00831203136E08EA00831603132B080C
:1004580083120313EE0083160313AB012908A000CF
:10046800A1012108A3002A082002A200031CA3035B
:100478002308803AFF0080307F02031D452A1A3086
:100488002202031C482A492A902A831203136A0865
:10049800690468046704031D522A542A0130552A46
:1004A800003083160313AB00003083120313EA00F5
:1004B8000030E9000030E8000030E700831603133D
:1004C8002908AA00982A2B1C6A2A6B2A722A2B0848
:1004D800A0000310200C0138AB00742A0310AB0CE9
:1004E80083120313671C792A7A2A7D2A8316031339
:1004F800AB17013083160313A000831203136A0D90
:10050800EA0CE90CE80CE70C83160313A00B812A0C
:100518000130FF007F08AA078316031329082A025F
:10052800031C972A982A672A281B9B2A9C2AF52AA3
:100538002A08031DA02AA12AAC2A0030831203131B
:10054800EA000030E9000030E8000030E700A52CA0
:10055800831203136B08E7076C0803110318013EA5
:100568000319B72AE8076D0803110318013E031998
:10057800BE2AE9076E0803110318013E0319C52AAC
:10058800EA076A1CC82AC92AF32B831603132B1CF3
:10059800CE2ACF2AD62A2B08A0000310200C013817
:1005A800AB00D82A0310AB0C83120313671CDD2A97
:1005B800DE2AE12A83160313AB17013083160313CF
:1005C800A000831203136A0DEA0CE90CE80CE70C8F
:1005D80083160313A00BE52A0130FF007F08AA0742
:1005E800F32B831203136A08803AFF006E08803ADF
:1005F8007F02031D092B6D086902031D092B6C0876
:100608006802031D092B6B08670203180C2B0D2BBE
:100618009D2BFF3083160313A000FF30A100FF308D
:10062800A200FF30A300831203136B088316031381
:10063800A400831203136C0883160313A500831206
:1006480003136D0883160313A600831203136E08A1
:1006580083160313A7008312031367088316031373
:10066800A402831203136808031C680F3C2B3F2B5A
:1006780083160313A502831203136908031C690F69
:10068800462B492B83160313A602831203136A0809
:10069800031C6A0F502B532B83160313A7028312D4
:1006A8000313831603132408A00725080318250F2E
:1006B8005E2B5F2BA10726080318260F642B652BDA
:1006C800A20727080318270AA3072308831203137E
:1006D800EA0083160313220883120313E900831622
:1006E8000313210883120313E80083160313200859
:1006F80083120313E7008030FF007F08831603137B
:10070800A806AB09AB0A2B08031D8B2B8C2BAB2B34
:10071800013083120313E707003003180130E8079C
:10072800003003180130E907003003180130EA07E8
:10073800AB2B6B08E7026C08031C6C0FE8026D0812
:10074800031C6D0FE9026E08031C6E0FEA02831288
:100758006A08690468046704031DB32BB42BEE2BE5
:10076800831603132B08031DBA2BBB2BEE2B00306B
:1007780083120313EA000030E9000030E80000307B
:10078800E700A52C013083160313A0000310831281
:100798000313E70DE80DE90DEA0D83160313A00B0B
:1007A800CA2BAB1FD82BD92BDC2B8312031367144E
:1007B800831603132B1CE12BE22BE52B0314AB0D43
:1007C800E72B0310AB0D2A080319EB2BEC2BEE2BB0
:1007D8000130AA028312E91FF22BF32BC62B8316D2
:1007E8000313A901AB1FF92BFA2B0C2C2B087F390B
:1007F8000319FF2B002C052C83160313A901A90A42
:100808000C2C83120313671C0A2C0B2C0C2C002CA9
:100818008316031329080319122C132C672C013093
:1008280083120313E707003003180130E80700308C
:1008380003180130E907003003180130EA076A1C81
:10084800262C272C672C670883160313A000831215
:100858000313680883160313A1008312031369089E
:1008680083160313A200831203136A088316031363
:10087800A3000130A400230DA30CA20CA10CA00C12
:10088800A40B3F2C230883120313EA0083160313D7
:10089800220883120313E900831603132108831225
:1008A8000313E80083160313200883120313E700D9
:1008B800831603132A0A0319622C632C672C013050
:1008C800FF007F08AA07831603132A0A03196D2C51
:1008D8006E2C732C2A08031D722C732C852C003067
:1008E80083120313EA000030E9000030E80000300A
:1008F800E700831603132A08031D832C842C852CF8
:10090800A8012A1C882C892C8D2C83120313E91723
:10091800932C7F30FF007F0883120313E9058316A9
:1009280003132A08A0000310200C83120313EA0003
:1009380083160313A81FA12CA22CA52C8312031322
:10094800EA1708008312031336088039C0003608F6
:10095800BB003B07C600B51FB22CB32CB42C461401
:1009680046080319B82CB92CC82C460A031DBD2CFF
:10097800BE2CC62C0030B6000030B5000030B400E4
:100988000030B300B517D02C0030B6000030B500E9
:100998000030B4000030B3003A088039FF007F0807
:1009A800C0063A08BB003B07C100B91FDC2CDD2C90
:1009B800DE2C411441080319E22CE32CF22C410AE5
:1009C800031DE72CE82CF02C0030BA000030B900E9
:1009D8000030B8000030B700B917FA2C0030BA0060
:1009E8000030B9000030B8000030B70041080319E2
:1009F800FE2CFF2C042D4608031D032D042D0D2D60
:100A08000030B6000030B5000030B4000030B3004C
:100A1800EA2F3308F00039080A168A15D1240A1279
:100A28008A11710883120313CC007008CB004B089D
:100A3800BB00BC01BD01BE013E08C5003D08C400A5
:100A48003C08C3003B08C2004C08BB00BC01BD0108
:100A5800BE013E08CA003D08C9003C08C8003B0862
:100A6800C7003408F00038080A168A15D1240A127B
:100A78008A11710883120313CC007008CB004B084D
:100A8800BB00BC01BD01BE013B08C2073C08031105
:100A98000318013E0319512DC3073D08031103181C
:100AA800013E0319582DC4073E0803110318013EDF
:100AB80003195F2DC5074C08BB00BC01BD01BE0171
:100AC8003B08C7073C0803110318013E03196D2DA5
:100AD800C8073D0803110318013E0319742DC907FF
:100AE8003E0803110318013E03197B2DCA07350878
:100AF800F00037080A168A15D1240A128A117108DB
:100B080083120313CC007008CB004B08BB00BC0158
:100B1800BD01BE013B08C2073C0803110318013E92
:100B28000319972DC3073D0803110318013E031944
:100B38009E2DC4073E0803110318013E0319A52D75
:100B4800C5074C08BB00BC01BD01BE013B08C70777
:100B58003C0803110318013E0319B32DC8073D08CB
:100B680003110318013E0319BA2DC9073E080311E2
:100B78000318013E0319C12DCA070830BB00031032
:100B8800C20DC30DC40DC50DBB0BC32D3408F00039
:100B980037080A168A15D1240A128A117108831295
:100BA8000313CC007008CB004B08BB004C08BC00FA
:100BB800BD01BE013B08C2073C0803110318013EF2
:100BC8000319E72DC3073D0803110318013E031954
:100BD800EE2DC4073E0803110318013E0319F52D35
:100BE800C5073308F00038080A168A15D1240A12F6
:100BF8008A11710883120313CC007008CB004B08CC
:100C0800BB004C08BC00BD01BE013B08C2073C0844
:100C180003110318013E0319122EC3073D080311DF
:100C28000318013E0319192EC4073E0803110318BF
:100C3800013E0319202EC5070830BB000310C20D62
:100C4800C30DC40DC50DBB0B222E3308F0003708A9
:100C58000A168A15D1240A128A11710883120313FD
:100C6800CC007008CB004B08BB004C08BC00BD0191
:100C7800BE013B08C2073C0803110318013E0319D3
:100C8800462EC3073D0803110318013E03194D2ED4
:100C9800C4073E0803110318013E0319542EC50763
:100CA8003408F00039080A168A15D1240A128A1164
:100CB800710883120313CC007008CB004B08BB00EB
:100CC8004C08BC00BD01BE013B08C7073C08031126
:100CD8000318013E0319712EC8073D0803110318B4
:100CE800013E0319782EC9073E0803110318013E77
:100CF80003197F2ECA073508F00038080A168A1526
:100D0800D1240A128A11710883120313CC007008C7
:100D1800CB004B08BB004C08BC00BD01BE013B0822
:100D2800C7073C0803110318013E03199C2EC80786
:100D38003D0803110318013E0319A32EC9073E08F5
:100D480003110318013E0319AA2ECA073508F0003B
:100D580039080A168A15D1240A128A1171088312D1
:100D68000313CC007008CB004B08BB004C08BC0038
:100D7800BD01BE0108300310BB0DBC0DBD0DBE0D7D
:100D8800FF3E031DBF2E3B08C7073C08031103188D
:100D9800013E0319D02EC8073D0803110318013E70
:100DA8000319D72EC9073E0803110318013E03197A
:100DB800DE2ECA074208BB004308BC004408BD0039
:100DC8004508BE0018300310BE0CBD0CBC0CBB0C93
:100DD800FF3E031DE72E3B08C7073C080311031815
:100DE800013E0319F82EC8073D0803110318013EF8
:100DF8000319FF2EC9073E0803110318013E031902
:100E0800062FCA070830BB000310C20DC30DC40D5E
:100E1800C50DBB0B082F46084107BB00BC01BC0D24
:100E28003B08823ECB003C080318013EFF3ECC0045
:100E38003A2F0130BB000310C70DC80DC90DCA0DEC
:100E4800BB0B1F2FC51F292F2A2F2B2F471401300B
:100E5800BB000310C20DC30DC40DC50DBB0B2D2F58
:100E6800FF30CB070318CC0AFF30CC07C91F3D2F32
:100E78003E2F1D2FC101C51F422F432F5F2FFF306B
:100E88004205BB00FF304305BC00FF304405BD00F0
:100E98007F304505BE003E083D043C043B04031971
:100EA800562F572F5A2FC101C10A5F2F471C5D2F9C
:100EB8005E2F5F2F572F41080319632F642F952F3B
:100EC8000130C707003003180130C8070030031885
:100ED8000130C907003003180130CA074A1C752FB2
:100EE800762F952F4708BB004808BC004908BD006D
:100EF8004A08BE000130BF003E0DBE0CBD0CBC0C44
:100F0800BB0CBF0B802F3E08CA003D08C9003C0837
:100F1800C8003B08C7000130CB070318CC0A0030D3
:100F2800CC074C08803AFF0080307F02031D9E2FBB
:100F3800FF304B02031CA12FA22FAD2F7F3083124D
:100F48000313CA008030C9000030C8000030C70051
:100F5800DE2F831203134C08803AFF0080307F0293
:100F6800031DB82F01304B020318BB2FBC2FC82F0D
:100F7800003083120313CA000030C9000030C800D3
:100F88000030C700C001DE2F831203134B08C600D0
:100F9800FF30C705FF30C8057F30C9050030CA05D6
:100FA800461CD72FD82FD92FC9174608BB000310C6
:100FB8003B0CCA004008FF007F08CA044A08B60074
:100FC8004908B5004808B4004708B3000800831270
:100FD8000313EF0183160313EC01EA01EB018317F6
:100FE80090308400A0300A128A1104200A128A1153
:080FF80083010A168A110F2D76
:1010060001300A168A152A240A128A152130F5009B
:101016007630F400F40B0D28F50B0D2800000800BF
:1010260083160313390883120313AF0083160313C1
:10103600380883120313AE0083160313370883128E
:101046000313AD0083160313360883120313AC0093
:10105600BE30B0000A168A1540270A128A15831672
:101066000313BF1F3728382867283908F3003808C4
:10107600F2003708F1003608F0000030F7000030C3
:10108600F6000030F5000030F4000A168A11262218
:101096000A128A150318502851285C28BF30831677
:1010A6000313B9008030B8000030B7000030B60036
:1010B600FB28003083160313B9000030B800003057
:1010C600B7000030B600FB2800303F021D30031980
:1010D6003E02031C6F2870287128FB283908AF00D0
:1010E6003808AE003708AD003608AC000A168A117B
:1010F60010210A128A15831603132F08F3002E08EF
:10110600F2002D08F1002C08F00001300A168A11B1
:10111600C8220A128A15730883160313BD007208C3
:10112600BC007108BB007008BA003908F300380823
:10113600F2003708F1003608F0003D08F7003C08D9
:10114600F6003B08F5003A08F4000A168A11262232
:101156000A128A150318B028B128F128BF30831265
:101166000313EA008030E9000030E8000030E700B1
:10117600831603133D0883120313EE00831603132D
:101186003C0883120313ED00831603133B088312F6
:101196000313EC00831603133A0883120313EB00C0
:1011A6000A128A1162210A128A15831203136A0827
:1011B60083160313B90083120313690883160313F6
:1011C600B80083120313680883160313B70083124B
:1011D6000313670883160313B600FB28831603134D
:1011E6003D08B9003C08B8003B08B7003A08B6000D
:1011F6000800C03083160313D6004030D5000030F7
:10120600D4000030D3004130D2002030D10000306D
:10121600D0000030CF000A128A156D220A128A15F4
:1012260083160313520883160317A70083160313A6
:10123600510883160317A600831603135008831656
:101246000317A500831603134F0883160317A4007C
:101256003F3083120313B6004C30B500CC30B400D7
:10126600CD30B30083160317270883120313BA0081
:1012760083160317260883120313B9008316031770
:10128600250883120313B800831603172408831254
:101296000313B7000A128A11A6240A128A158312AA
:1012A60003133608D0003508CF003408CE003308C3
:1012B600CD003F30D4008030D3000030D200003063
:1012C600D1000A128A152A240A128A1583120313D8
:1012D600500883160317A300831203134F088316BF
:1012E6000317A200831203134E0883160317A100E7
:1012F600831203134D0883160317A00003308316C9
:1013060003136502FF300319640203188B298C2925
:101316006C2A4B3083120313D4009830D3009630D6
:10132600D2008030D10083160317230883120313DB
:10133600BA0083160317220883120313B900831613
:101346000317210883120313B80083160317200816
:1013560083120313B7004130B6008030B500003069
:10136600B4000030B3000A128A11A6240A128A15A4
:10137600831203133608D0003508CF003408CE0098
:101386003308CD000A128A152A240A128A158312F6
:101396000313500883160317AB00831203134F0879
:1013A60083160317AA00831203134E088316031726
:1013B600A900831203134D0883160317A80083168A
:1013C60003136408F0006508F100F201F301003030
:1013D6000A168A11C8220A128A1573088312031381
:1013E600D4007208D3007108D2007008D1004430CE
:1013F600D0007F30CF00C030CE000030CD000A12C2
:101406008A152A240A128A15831203135008BA0071
:101416004F08B9004E08B8004D08B70083160317E9
:101426002B0883120313B600831603172A088312A8
:101436000313B50083160317290883120313B40098
:1014460083160317280883120313B3000A128A119E
:10145600A6240A128A158312031336088316031369
:10146600AF0083120313350883160313AE008312ED
:101476000313340883160313AD00831203133308D2
:1014860083160313AC000A168A1110210A128A1554
:10149600831603132D08E5002C08E4006418542A6B
:1014A600582A8312031397165B2A83120313971283
:1014B6001712831603136508E7006408E600031095
:1014C600E70CE60C0310E70CE60C66088312031320
:1014D6009500080083160313DF01520883120313D5
:1014E600A30083160313510883120313A200831665
:1014F6000313500883120313A100831603134F0826
:1015060083120313A0000030A7000030A6000030AD
:10151600A5000030A4000A168A1597260A128A1515
:10152600031C962A972AC32A0030F3000030F200E3
:101536000030F1000030F000831603135608F70060
:101546005508F6005408F5005308F4000A168A11E7
:1015560026220A128A15031CB12AB22AB82A213079
:10156600831603179A0000309B000030831603137E
:10157600D2000030D1000030D0000030CF00292C3E
:1015860083160313560883120313A300831603134B
:10159600550883120313A2008316031354088312FB
:1015A6000313A10083160313530883120313A00029
:1015B6000030A7000030A6000030A5000030A400CF
:1015C6000A168A1597260A128A15031CEB2AEC2A94
:1015D600F72A3F3083160313D2008030D100003043
:1015E600D0000030CF00292C831603135208F300D5
:1015F6005108F2005008F1004F08F0000030F700E3
:101606000030F6000030F5000030F4000A168A11AA
:1016160026220A128A150318112B122B912B8316D8
:1016260003135608AF005508AE005408AD00530822
:10163600AC000A168A1110210A128A1583160313A2
:101646002F08E3002E08E2002D08E1002C08E00038
:101656006308F3006208F2006108F1006008F00018
:1016660000300A168A11C8220A128A1573088312D4
:101676000313A3007208A2007108A1007008A0005D
:1016860083160313560883120313A7008316031346
:10169600550883120313A6008316031354088312F6
:1016A6000313A50083160313530883120313A40020
:1016B6000A168A1597260A128A150318632B642BB5
:1016C600752B2130831603179A0000309B000030DB
:1016D60083160313D2000030D1000030D000003052
:1016E600CF00292C8316031360080139DF00520846
:1016F600F3005108F2005008F1004F08F0000A16F6
:101706008A151F240A128A15730883160313D2003A
:101716007208D1007108D0007008CF008316031339
:101726005208BF005108BE005008BD004F08BC005B
:101736000A128A110C200A128A15831603133F080F
:10174600DA003E08D9003D08D8003C08D700560804
:1017560083120313B600831603135508831203136B
:10176600B50083160313540883120313B4008316BB
:101776000313530883120313B300831603135A0883
:1017860083120313BA008316031359088312031333
:10179600B90083160313580883120313B80083167F
:1017A6000313570883120313B7000A128A11A624DB
:1017B6000A128A1583120313360883160313DE00F2
:1017C60083120313350883160313DD0083120313F4
:1017D600340883160313DC008312031333088316BD
:1017E6000313DB005E08C7005D08C6005C08C50081
:1017F6005B08C4000A128A15F9250A128A1583168F
:1018060003134708D2004608D1004508D000440813
:10181600CF005F080319102C112C292C5208F30055
:101826005108F2005008F1004F08F0000A168A1518
:101836001F240A128A15730883160313D20072082E
:10184600D1007108D0007008CF00292C080083123F
:10185600031354088039DE005408D5005507E50007
:10186600D31F362C372C382C6514650803193C2CED
:101876003D2C4D2C650A031D412C422C4A2C003070
:10188600D4000030D3000030D2000030D100D3178E
:10189600D401552C0030D4000030D3000030D200E3
:1018A6000030D10050088039FF007F08DE0650085E
:1018B600D5005507E600CF1F612C622C632C6614F9
:1018C60066080319672C682C782C660A031D6C2C95
:1018D6006D2C752C0030D0000030CF000030CE00CB
:1018E6000030CD00CF17D001802C0030D000003062
:1018F600CF000030CE000030CD0050084F044E041B
:101906004D04031D872C882CA12C0030D4000030F8
:10191600D3000030D2000030D1008030D3047F30B5
:10192600D4045E08FF007F08D4045408D00053088E
:10193600CF005208CE005108CD00F82D6508031DD2
:10194600A52CA62CAF2C0030D0000030CF000030E4
:10195600CE000030CD00F82D6508D500D60156081A
:10196600D80066085502D700031CD80357087F3EE7
:10197600DF0058080318013E003EE0005408DD0071
:101986005308DC005208DB005108DA000030D400AE
:101996000030D3000030D2000030D1000030E40027
:1019A6000030E3000030E2000030E100E601252DC2
:1019B60066080319DF2CE02C002D0130D50003103A
:1019C600DA0DDB0DDC0DDD0DD50BE22C0130D5007B
:1019D6000310D10DD20DD30DD40DD50BEB2CE41F76
:1019E600F52CF62CF72C51140130D5000310E10D1F
:1019F600E20DE30DE40DD50BF92C50085D02031D35
:101A06000E2D4F085C02031D0E2D4E085B02031DB2
:101A16000E2D4D085A02031C112D122D212D64176F
:101A26004D08DA024E08031C4E0FDB024F08031C5A
:101A36004F0FDC025008031C500FDD020130FF007F
:101A46007F08E6071A306602031C2A2D2B2DDB2C95
:101A56005D085C045B045A040319322D332D522DA4
:101A66006114522D0130D5000310D10DD20DD30DC6
:101A7600D40DD50B372DE41F412D422D432D511486
:101A86000130D5000310E10DE20DE30DE40DD50B99
:101A9600452DFF30DF070318E00AFF30E007D31FAC
:101AA600552D562D352DE601E41F5A2D5B2D772D2C
:101AB600FF306105D500FF306205D600FF306305B3
:101AC600D7007F306405D8005808570456045504DB
:101AD60003196E2D6F2D722DE601E60A772D511C26
:101AE600752D762D772D6F2D660803197B2D7C2D90
:101AF600AD2D0130D107003003180130D207003078
:101B060003180130D307003003180130D407541CE2
:101B16008D2D8E2DAD2D5108D5005208D6005308B7
:101B2600D7005408D8000130D900580DD80CD70C6E
:101B3600D60CD50CD90B982D5808D4005708D300CD
:101B46005608D2005508D1000130DF070318E00A15
:101B56000030E0076008803AFF0080307F02031DF6
:101B6600B62DFF305F02031CB92DBA2DC82DFF30EC
:101B760083120313DF000030E0000030D400003091
:101B8600D3000030D2000030D10083120313600866
:101B9600803AFF0080307F02031DD32D01305F02A3
:101BA6000318D62DD72DE42D83120313DF01E00190
:101BB6000030D4000030D3000030D2000030D10015
:101BC600DE01831203135F08E500651CEB2DEC2D87
:101BD600EE2DD317F22D7F30FF007F08D305650861
:101BE600D5000310550CD400942C0800831603135B
:101BF600470883120313A3008316031346088312B0
:101C06000313A20083160313450883120313A100CE
:101C160083160313440883120313A0000030A700A1
:101C26000030A6000030A5000030A4000A168A1570
:101C360097260A128A15031C212E222E2D2E3F309E
:101C460083160313C7008030C6000030C50000307D
:101C5600C400FF2F4430F3003130F2007230F1003F
:101C66001830F000831603134708F7004608F600FD
:101C76004508F5004408F4000A168A1126220A12BD
:101C86008A150318472E482E592E2230831603171D
:101C96009A0000309B007F3083160313C7007F3005
:101CA600C600FF30C500FF30C400FF2F83160313A4
:101CB6004708F3004608F2004508F1004408F00022
:101CC600C430F7003A30F6004830F5008730F400AB
:101CD6000A168A1126220A128A150318732E742EE2
:101CE600852E2230831603179A0000309B000030A1
:101CF60083160313C7000030C6000030C50000304D
:101D0600C400FF2F831603134708F3004608F200AA
:101D16004508F1004408F0000030F7000030F600F6
:101D26000030F5000030F4000A168A1126220A1245
:101D36008A15031C9F2EA12E0130A22E0030831679
:101D46000313CE004E080319A92EAA2EC12E47084A
:101D5600F3004608F2004508F1004408F0000A16B0
:101D66008A151F240A128A15730883160313C700DF
:101D76007208C6007108C5007008C4003F3083129F
:101D86000313B600B830B500AA30B4003B30B30038
:101D960083160313470883120313BA00831603132B
:101DA600460883120313B9008316031345088312EA
:101DB6000313B80083160313440883120313B700F2
:101DC6000A128A11A6240A128A15831203133608E8
:101DD60083160313C70083120313350883160313F0
:101DE600C60083120313340883160313C500831237
:101DF6000313330883160313C4004708B9004608C3
:101E0600B8004508B7004408B6000A128A15132020
:101E16000A128A15831603133908CB003808CA003C
:101E26003708C9003608C8004B08AF004A08AE009C
:101E36004908AD004808AC000A168A1110210A129A
:101E46008A15831603132D08CD002C08CC004C08E8
:101E5600F0004D08F1000030F11BFF30F200F300F6
:101E660001300A168A11C8220A128A1573088316C7
:101E76000313AF007208AE007108AD007008AC0025
:101E86004708B3004608B2004508B1004408B00050
:101E96000A168A1547260A128A15831603132F086F
:101EA600C7002E08C6002D08C5002C08C400470828
:101EB600AF004608AE004508AD004408AC0001304E
:101EC600B0000930B1000030B2000A168A11E525CB
:101ED6000A128A15831603132F08BF002E08BE00A8
:101EE6002D08BD002C08BC004D08C1004C08C000E0
:101EF6000A168A1180230A128A15831603133F08CD
:101F0600C7003E08C6003D08C5003C08C4004E0890
:101F160003198E2F8F2FFF2F470883120313A30059
:101F260083160313460883120313A20083160313B2
:101F3600450883120313A100831603134408831272
:101F46000313A0007F30A7007F30A600FF30A50056
:101F5600FF30A4000A168A1597260A128A15031C52
:101F6600B52FB62FC12F003083160313C7000030DC
:101F7600C6000030C5000030C400FF2F83160313CF
:101F8600470883120313D0008316031346088312EF
:101F96000313CF0083160313450883120313CE00E1
:101FA60083160313440883120313CD003F30D40075
:101FB6008030D3000030D2000030D1000A128A15DA
:101FC6002A240A128A158312031350088316031350
:101FD600C700831203134F0883160313C600831228
:101FE60003134E0883160313C500831203134D080B
:101FF60083160313C400FF2F080010308A0004085C
:10200600840A820700340034003480343F341834A4
:10201600723431343F34F034FD3475343E34473451
:10202600583463343D34583495341D343C3482344A
:10203600C434AE343A34A834783421343934EF34E5
:10204600933480343734A0349234A734353446344C
:102056005634153434340034003400340034C43477
:10206600FF347F343F348034EF34FF34BE34903451
:10207600E134A9343E34EC3482347634BE348234CE
:10208600AD342B343E340E343C34C334BD34873443
:10209600D13413343D3441347834D334BB344334EF
:1020A6006F346D346D3475346E3469346334613431
:1020B60020344634613469346C3465346434003415
:1020C60044346F34693420345834693475342E34CA
:1020D6002E342E3431347334003444346134743441
:1020E600613420344634613469346C346534643484
:1020F60000345134753469346E3444346534703484
:10210600543472346134693400344E34683469347A
:1021160065347434203464346F343D3420340034F0
:1021260044346F34203461346D343D34203400340B
:10213600F40083120313881474080A168A152A24D5
:102146000A168A118312031388100800F501F11F7D
:10215600AD28AE28B528F009F109F00A0319F10AED
:10216600F501F50AF31FB828B928C228F209F309C0
:10217600F20A0319F30A0130FF007F08F506F6019B
:10218600F701700871040319C928CA280129F40146
:10219600F40AD82801300310F00DF10DFF3E031D9F
:1021A600CE280130FF007F08F407F11FDB28DC286A
:1021B600CD2801300310F60DF70DFF3E031DDD2877
:1021C60071087302031DE92870087202031CEC28CB
:1021D600ED28F4287008F2027108031CF303F302D9
:1021E600761401300310F10CF00CFF3E031DF528A8
:1021F6000130F402031D00290129DC2875080319A2
:10220600052906290B29F609F709F60A0319F70A1B
:102216007708F1007608F000080003108316031310
:102226002E0D2F0DB5003508031D1A291B2924294B
:102236000030AF000030AE000030AD000030AC0022
:1022460087292C08B0002D08B1002E08B2002F08EF
:10225600B3001F300310B30CB20CB10CB00CFF3E30
:10226600031D2D293008B400AE17FF30AC05FF3032
:10227600AD05FF30AE050030AF059630B502B51F8F
:102286004529462960293508803A973E03184C2986
:102296004D294E291B2901300310AF0CAE0CAD0C95
:1022A600AC0CFF3E031D4F290130FF007F08B50728
:1022B600031D5E295F294E29772920303502031C2C
:1022C6006529662972291B290130B0000310AC0D5F
:1022D600AD0DAE0DAF0DB00B69290130B502350855
:1022E600031D762977296729340803197B297C2958
:1022F6008729AC09AD09AE09AF09AC0A0319AD0AC5
:102306000319AE0A0319AF0A0800FA01FB01F80126
:10231600F90183120313881D912992298C295330C0
:10232600F200F20B942983120313881D9B299C2922
:10233600BF297A08F2007207903E840083170008CE
:10234600F300840A0008F4000310F30DF40D0130C5
:102356007304F50000307404F6007A08F700770776
:10236600903E840075088000840A760880008819EB
:10237600BD29BE29BA29D7297A08F2007207903EEC
:10238600840083170008F300840A0008F400031091
:10239600F30DF40D7A08F5007507903E8400730876
:1023A6008000840A740880000130F8070318F90ACF
:1023B6000030F9077908803AFF0080307F02031D5C
:1023C600E62908307802031CE929EA298C2901301C
:1023D600FA070318FB0A0030FB077B08803AFF0068
:1023E60080307F02031DF92905307A02031CFC297F
:1023F600FD298A298316031714081607F200150803
:102406000318150A1707F30012087207F4001308D9
:102416000318130A7307F50010087407F60011086D
:102426000318110A7507F70019087706031D1D2AF8
:1024360018087606031D202A212A252A0130F000D5
:102446000030F100080000307005F800003071051A
:10245600F90080307205FA007F307305FB007B08B7
:102466007A0479047804031D392A3A2A422A00306C
:10247600F3000030F2000030F1000030F0000030D0
:102486007405F80000307505F90080307605FA000D
:102496007F307705FB007B087A0479047804031DF6
:1024A600552A562A5E2A0030F7000030F600003022
:1024B600F5000030F400F31F612A622A862A0030F4
:1024C600F8000030F9000030FA008030FB00700898
:1024D600F8027108031C710F712A722AF902720838
:1024E600031C720F772A782AFA027308031C730FEB
:1024F6007D2A7E2AFB027B08F3007A08F20079081F
:10250600F1007808F000F71F892A8A2AAE2A0030DF
:10251600F8000030F9000030FA008030FB00740843
:10252600F8027508031C750F992A9A2AF90276088B
:10253600031C760F9F2AA02AFA027708031C770F3E
:10254600A52AA62AFB027B08F7007A08F600790876
:10255600F5007808F4008030F3068030F706770837
:102566007302031DC02A76087202031DC02A75086D
:102576007102031DC02A740870020318C32AC42AF4
:10258600C62A0310C72A03140800F800780803199E
:10259600CD2ACE2AE22AF31FD12AD22AE22A7009AC
:1025A600FA007109FB007209FC007309FD00FA0AC2
:1025B6000319FB0A0319FC0A0319FD0AEA2A730820
:1025C600FD007208FC007108FB007008FA00730831
:1025D600720471047004031DF12AF22AFB2A0030EA
:1025E600F3000030F2000030F1000030F0007F2BE5
:1025F6009630F9000B2B0130FF007F08F9070130F8
:102606000310FD0CFC0CFB0CFA0CFF3E031D032B08
:10261600FE307D05031D102B112BFE2A2D2B0130BC
:10262600FF007F08F9070130FA0700300318013070
:10263600FB07003003180130FC0700300318013097
:10264600FD0701300310FD0CFC0CFB0CFA0CFF3EE1
:10265600031D252BFF307D05031D322B332B122B3B
:102666003F2B0130F9020130F4000310FA0DFB0D87
:10267600FC0DFD0DF40B382BFC1B422B432B492B79
:10268600023079020318482B492B342B79184C2B2E
:102696004D2B552BFF30FA05FF30FB057F30FC052F
:1026A600FF30FD050310F90C7908F400F501F60179
:1026B600F70118300310F40DF50DF60DF70DFF3E7A
:1026C600031D5D2B7408FA047508FB047608FC04E8
:1026D6007708FD0478080319712B722B772BF31FEB
:1026E600752B762B772BFD177D08F3007C08F200FF
:1026F6007B08F1007A08F0000800831603133F08F0
:1027060083120313A300831603133E0883120313D5
:10271600A200831603133D0883120313A100831638
:1027260003133C0883120313A0000030A7000030F7
:10273600A6000030A5000030A4000A168A159726C8
:102746000A168A11031CA82BA92BB42B003083165A
:102756000313BF000030BE000030BD000030BC00D7
:102766003F2C831603133F087F39C200C3010310B1
:10277600C20DC30D4208C0070318C10A4308C107AA
:102786003E0D3E0D0139C200C3014208C0070318C1
:10279600C10A4308C107C11FD12BD22BE32B22301C
:1027A600831603179A0000309B000030831603132C
:1027B600BF000030BE000030BD000030BC003F2C22
:1027C6004108803AFF0081307F02031DEC2B003068
:1027D6004002031CEF2BF02B272C22308316031705
:1027E6009A0000309B00831603133F08F3003E084F
:1027F600F2003D08F1003C08F0000030F700003020
:10280600F6000030F5000030F4000A168A11262280
:102816000A168A110318102C112C1C2CFF30831653
:102826000313BF007F30BE00FF30BD00FF30BC0089
:102836003F2C7F3083160313BF007F30BE00FF306E
:10284600BD00FF30BC003F2C831603134108C300B4
:102856004008C200430DC30CC20C3F084206803933
:102866004206BF0040080139C200C20CC20C3E0835
:1028760042067F394206BE0008000A128A15032066
:102886000A168A1183300A168A158D240A168A11A9
:102896000D30F8000030F9007808F40000300A1610
:1028A6008A1540240A168A110A30F0000030F10019
:1028B600831603171508F3001408F2000A168A1582
:1028C600E7260A168A117008303E0A168A119B20DE
:1028D6000A168A110A30F0000030F1008316031739
:1028E6001508F3001408F2000A168A11A9200A1620
:1028F6008A11710883160317950070089400FF303B
:10290600F8070318F90AFF30F9077908803AFF003B
:1029160080307F02031D912C0C3078020318942C12
:10292600952C4F2CF40101300A168A1540240A16FC
:102936008A118E300A168A158D240A168A110D30D0
:10294600FA000030FB007A08F40001300A168A15F6
:1029560040240A168A110A30F0000030F10083166E
:1029660003171108F3001008F2000A168A15E72665
:102976000A168A117008303E0A168A119B200A161A
:102986008A110A30F0000030F1008316031711088F
:10299600F3001008F2000A168A11A9200A168A11F5
:1029A600710883160317910070089000FF30FA072C
:1029B6000318FB0AFF30FB077B08803AFF008030D4
:1029C6007F02031DE82C0C307A020318EB2CEC2C4A
:1029D600A62C0E30F40000300A168A1540240A167A
:1029E6008A11DF300A168A119B200A168A11433093
:1029F6000A168A119B200A168A110E30F40001303D
:102A06000A168A1540240A168A1125300A168A11D2
:102A16009B200A168A110800831603138801870172
:102A2600FF3086000A168A159C270A168A110A168E
:102A36008A1558240A168A11831203130708F739D0
:102A460087000A168A11BF260A168A1183120313F3
:102A5600070880388700831603179E019F01831697
:102A660003136C10831603179C019D018316031331
:102A7600EA01EB01831203136F1000308316031370
:102A8600E400E5000A128A15FC200A168A11413074
:102A960083160313E900ED30E800E80B502DE90B2F
:102AA600502D552D0A168A154F250A168A117003C0
:102AB600710403195F2D602D6B2D0A128A150320F0
:102AC6000A168A114D300A168A158D240A168A119D
:102AD6000A168A1188210A168A11700371040319CD
:102AE600752D762D812D0A128A1503200A168A1154
:102AF6006B300A168A158D240A168A118316031757
:102B0600150883160313EB008316031714088316A0
:102B16000313EA000A168A1140240A168A110A16B5
:102B26008A1571240A168A11831203136F1C9C2DB1
:102B36009D2D402D0A168A15F8240A168A11831629
:102B460003136C1CA72DA82DB22D0A168A158125F4
:102B56000A168A110A168A1520250A168A1183165C
:102B660003171D08F1001C08F0006430F200003065
:102B7600F3000A168A15AC240A168A117108831600
:102B860003179F0070089E001F0883160313E500B5
:102B9600831603171E0883160313E4000A128A1508
:102BA600FC200A168A11831603136C18DB2DDC2D04
:102BB6004A2D0A168A15B3250A168A114A2D0A12B3
:102BC6008A110028831603133108B300013003105D
:102BD600B30DFF3E031DEA2D0310330D30078400AD
:102BE6000A168A1100200A168A11B4000A168A11DA
:102BF60000200A168A11B5000A168A1100200A1644
:102C06008A11B6000A168A1100200A168A11B70020
:102C16003708BB003608BA003508B9003408B800D2
:102C2600B02EFF30B1070318B20AFF30B2073108E1
:102C3600B30001300310B30DFF3E031D1D2E03101C
:102C4600330D300784000A168A1100200A168A11ED
:102C5600B4000A168A1100200A168A11B5000A164F
:102C66008A1100200A168A11B6000A168A11002057
:102C76000A168A11B700370883120313EA0083166F
:102C86000313360883120313E9008316031335086A
:102C960083120313E8008316031334088312031305
:102CA600E700831603133B0883120313B60083164B
:102CB60003133A0883120313B50083160313390866
:102CC60083120313B4008316031338088312031305
:102CD600B300831603132F0883120313BA00831657
:102CE60003132E0883120313B900831603132D084A
:102CF60083120313B800831603132C0883120313DD
:102D0600B7000A128A11A6240A168A11831203131F
:102D16003608EE003508ED003408EC003308EB0009
:102D26000A128A1162210A168A11831203136A088B
:102D360083160313BB008312031369088316031358
:102D4600BA0083120313680883160313B9008312AB
:102D56000313670883160313B80031083204031DF2
:102D6600B52EB62E142E3B08AF003A08AE00390831
:102D7600AD003808AC000800C03083160313D60037
:102D86004030D5000030D4000030D3004130D200AE
:102D96002030D1000030D0000030CF000A128A1552
:102DA6006D220A168A118316031352088316031717
:102DB600A70083160313510883160317A60083166C
:102DC6000313500883160317A500831603134F0831
:102DD60083160317A4003F3083120313B6004C304A
:102DE600B500CC30B400CD30B300831603172708E6
:102DF60083120313BA0083160317260883120313DC
:102E0600B90083160317250883120313B800831627
:102E16000317240883120313B7000A128A11A62483
:102E26000A168A11831203133608D0003508CF001C
:102E36003408CE003308CD003F30D4008030D300B4
:102E46000030D2000030D1000A128A152A240A1650
:102E56008A1183120313500883160317A3008312E3
:102E660003134F0883160317A200831203134E0899
:102E760083160317A100831203134D088316031745
:102E8600A000230883120313BA008316031722082F
:102E960083120313B9008316031721088312031341
:102EA600B80083160317200883120313B7004030B7
:102EB600B6008030B5000030B4000030B3000A120E
:102EC6008A11A6240A168A1183120313360883165A
:102ED6000317AB0083120313350883160317AA00E2
:102EE60083120313340883160317A90083120313EE
:102EF600330883160317A8004B3083120313D4003C
:102F06009830D3009630D2008030D1008316031754
:102F16002B0883120313BA00831603172A08831299
:102F26000313B90083160317290883120313B80085
:102F360083160317280883120313B7004130B6001F
:102F46008030B5000030B4000030B3000A128A1198
:102F5600A6240A168A11831203133608D0003508F0
:102F6600CF003408CE003308CD000A128A152A2471
:102F76000A168A11831203135008EE004F08ED005B
:102F86004E08EC004D08EB00BF30EA008030E90047
:102F96000030E8000030E7000A128A1162210A16A2
:102FA6008A11831203136A0883160313AF00831270
:102FB6000313690883160313AE008312031368080C
:102FC60083160313AD0083120313670883160313D6
:102FD600AC000A168A1110210A168A1183160313E9
:102FE6002C089200831203139715171512149210CA
:0A2FF600121583160313870108006B
:10383E0073087204710470040319262C272C292C8A
:10384E008030F3060800F3007308F2000430031012
:10385E00F20CFF3E031D2E2C72080A168A15F8254F
:10386E000A168A1573080A168A15F8250A168A1575
:10387E000800F6007608031D452C462C4A2C7408C9
:10388E00803EF7004D2C7408C03EF70077080A16EC
:10389E008A152A240A168A155330F500F50B552C75
:1038AE0008000A128A1503200A168A1577300A169E
:1038BE008A158D240A168A15F40101300A168A1506
:1038CE0040240A168A155E300A168A158D240A16A9
:1038DE008A150800831203138619762C772C8C2CEC
:1038EE004130F100EE30F000F00B7B2CF10B7B2C15
:1038FE000000831203138619852C862C8C2C861DB2
:10390E00892C8A2C862C0130EF060800F5009F2C9E
:10391E00750884000A168A1100200A168A150A16DE
:10392E008A119B200A168A150130FF007F08F507C1
:10393E00750884000A168A1100200A168A15003AA4
:10394E00031DAA2CAB2C8F2C0800F401F501701C62
:10395E00B12CB22CB82C7208F4070318F50A7308B0
:10396E00F50701300310F20DF30DFF3E031DB92CC8
:10397E0001300310F10CF00CFF3E031DC02C70083B
:10398E007104031DCB2CCC2CAE2C7508F1007408E1
:10399E00F0000800F800F401F5017008F200F301E0
:1039AE007208F6007308F700781CDE2CDF2CE52C6D
:1039BE007608F4070318F50A7708F50701300310A7
:1039CE00F60DF70DFF3E031DE62C0310F80C7808DC
:1039DE00031DF22CF32CDB2C7508F1007408F0009B
:1039EE000800831203130619FD2CFE2C1F2D4130E7
:1039FE00F100EE30F000F00B022DF10B022D000065
:103A0E008312031306190C2D0D2D1F2D061D102DBF
:103A1E00112D0D2D013083160313EC066C1C182D81
:103A2E00192D1F2D0130831603179C0000309D00A9
:103A3E000800831203138618252D262D4E2D413096
:103A4E00F100EE30F000F00B2A2DF10B2A2D0000C4
:103A5E00831203138618342D352D4E2D482D01302B
:103A6E00831603179C020030031C9D039D021C0845
:103A7E001D04031D432D442D482D01309C000030A4
:103A8E009D0083120313861C4D2D4E2D362D0800DE
:103A9E00831603138811831203138811C330F300A6
:103AAE00CD30F200F20B592DF30B592D8312031367
:103ABE0088158316031388154230F200F20B652D1C
:103ACE0000008312031388196D2D6E2D802D853005
:103ADE00F200F20B702D83120313881D772D782DB3
:103AEE00802D8530F200F20B7A2D0130F00000307F
:103AFE00F1000800831203130618862D872DB22DB0
:103B0E004130F100EE30F000F00B8B2DF10B8B2DD0
:103B1E000000831203130618952D962DB22DAC2D91
:103B2E000130831603179C0703189D0A00309D076A
:103B3E0000301D020B3003191C02031CA72DA82DEB
:103B4E00AC2D0A309C0000309D0083120313061C1E
:103B5E00B12DB22D972D08000030831603136B0282
:103B6E00243003196A02031CBD2DBE2DC72DE8306B
:103B7E00E4000330E5000A128A15FC200A168A15A5
:103B8E000030831603136B02103003196A02031CF4
:103B9E00D12DD22DE42D00306B02243003196A0290
:103BAE000318DA2DDB2DE42DF430E4000130E500AE
:103BBE000A128A15FC200A168A1500308316031382
:103BCE006B02103003196A020318EE2DEF2DF72D3C
:103BDE000030E400E5000A128A15FC200A168A1548
:103BEE000800F1007118FC2D002E83120313081625
:103BFE00032E8312031308127108F0000130031014
:103C0E00F00CFF3E031D062E70180E2E122E831280
:103C1E0003138816152E8312031388127108F000F1
:103C2E0002300310F00CFF3E031D182E7018202ECC
:103C3E00242E831203130817272E8312031308133F
:103C4E007108F00003300310F00CFF3E031D2A2E06
:103C5E007018322E362E831203138817392E8312C4
:103C6E000313881308140830F000F00B3C2E831257
:103C7E00031308104230F000F00B432E0000080032
:103C8E00803083160313AF06330883120313EA0042
:103C9E0083160313320883120313E90083160313EA
:103CAE00310883120313E8008316031330088312BE
:103CBE000313E700831603132F0883120313EE007A
:103CCE00831603132E0883120313ED0083160313BA
:103CDE002D0883120313EC00831603132C08831292
:103CEE000313EB000A128A1162210A168A15831237
:103CFE0003136A0883160313AF00831203136908B4
:103D0E0083160313AE00831203136808831603137E
:103D1E00AD0083120313670883160313AC0008006B
:103D2E000030831203132005A80000302105A900DE
:103D3E0080302205AA007F302305AB002B082A0411
:103D4E0029042804031DAC2EAD2EB52E0030A30081
:103D5E000030A2000030A1000030A0000030240589
:103D6E00A80000302505A90080302605AA007F3066
:103D7E002705AB002B082A0429042804031DC82E8E
:103D8E00C92ED12E0030A7000030A6000030A500AD
:103D9E000030A40027082306031DDF2E2608220666
:103DAE00031DDF2E25082106031DDF2E2408200605
:103DBE000319E22EE32EE52E0310E62E031408005F
:103DCE00F501F31FEB2EEC2EF32EF209F309F20A96
:103DDE000319F30AF501F50AF11FF62EF72EFC2E44
:103DEE00F009F109F00A0319F10A700871040319B8
:103DFE00012F022F312FF401F40A102F013003107E
:103E0E00F00DF10DFF3E031D062F0130FF007F0860
:103E1E00F407F11F132F142F052F71087302031DC2
:103E2E001A2F70087202031C1D2F1E2F242F7008CC
:103E3E00F2027108031CF303F30201300310F10CBC
:103E4E00F00CFF3E031D252F0130F402031D302F11
:103E5E00312F142F75080319352F362F3B2FF209EA
:103E6E00F309F20A0319F30A7308F1007208F0005D
:103E7E000800831203132F08A3002E08A2002D089A
:103E8E00A1002C08A0000030A7000030A6000030D2
:103E9E00A5000030A4000A168A1597260A168A1560
:103EAE00031C5A2F5B2F6C2F8312031330088400D0
:103EBE0083138001840A80010030AF000030AE0011
:103ECE000030AD000030AC009B2F831203132F087F
:103EDE007F39B100B2010310B10DB20D300884006C
:103EEE00310883138000840A320880002E0D2E0DB7
:103EFE000139B100B2013008840031088004840A0F
:103F0E00320880043008840082308007840F000855
:103F1E000318000AFF00FF307F07800084032F087C
:103F2E0080393F38AF00AE130800831603138801A3
:103F3E008312031388108230F500DD30F400F40B89
:103F4E00A62FF50BA62FAB2F03300A168A15F825D0
:103F5E000A168A154130F500EE30F400F40BB52F39
:103F6E00F50BB52F000003300A168A15F8250A1630
:103F7E008A154130F500EE30F400F40BC42FF50B2A
:103F8E00C42F000003300A168A15F8250A168A1562
:103F9E004130F500EE30F400F40BD32FF50BD32F98
:103FAE00000002300A168A15F8250A168A154130C5
:103FBE00F500EE30F400F40BE22FF50BE22F0000CB
:103FCE0028300A168A152A240A168A150C300A1663
:103FDE008A152A240A168A1506300A168A152A24E4
:103FEE000A168A1501300A168A152A240A168A1507
:0A3FFE000800FF3FFF3FFF3FFF3FB9
:02400E003A3F37
:00000001FF
